{
  "contractName": "Bank",
  "abi": [
    {
      "anonymous": false,
      "inputs": [
        {
          "indexed": true,
          "internalType": "address",
          "name": "user",
          "type": "address"
        },
        {
          "indexed": false,
          "internalType": "uint256",
          "name": "amount",
          "type": "uint256"
        }
      ],
      "name": "Deposit",
      "type": "event"
    },
    {
      "anonymous": false,
      "inputs": [
        {
          "indexed": true,
          "internalType": "address",
          "name": "user",
          "type": "address"
        },
        {
          "indexed": false,
          "internalType": "uint256",
          "name": "amount",
          "type": "uint256"
        }
      ],
      "name": "Withdraw",
      "type": "event"
    },
    {
      "stateMutability": "payable",
      "type": "receive",
      "payable": true
    },
    {
      "inputs": [
        {
          "internalType": "uint256",
          "name": "amount",
          "type": "uint256"
        }
      ],
      "name": "withdraw",
      "outputs": [],
      "stateMutability": "nonpayable",
      "type": "function"
    },
    {
      "inputs": [],
      "name": "balanceOf",
      "outputs": [
        {
          "internalType": "uint256",
          "name": "",
          "type": "uint256"
        }
      ],
      "stateMutability": "view",
      "type": "function",
      "constant": true
    }
  ],
  "bytecode": "0x608060405234801561001057600080fd5b506101f4806100206000396000f3fe60806040526004361061002d5760003560e01c80632e1a7d4d146100a3578063722713f7146100c55761009e565b3661009e576000341161005b5760405162461bcd60e51b81526004016100529061017e565b60405180910390fd5b336001600160a01b03167fe1fffcc4923d04b559f4d29a8bfc6cda04eb5b0d3c460751c2402c5c5cc9109c3460405161009491906101b5565b60405180910390a2005b600080fd5b3480156100af57600080fd5b506100c36100be366004610166565b6100f0565b005b3480156100d157600080fd5b506100da610162565b6040516100e791906101b5565b60405180910390f35b604051339082156108fc029083906000818181858888f1935050505015801561011d573d6000803e3d6000fd5b50336001600160a01b03167f884edad9ce6fa2440d8a54cc123490eb96d2768479d49ff9c7366125a94243648260405161015791906101b5565b60405180910390a250565b4790565b600060208284031215610177578081fd5b5035919050565b6020808252601b908201527f4572726f723a20656d707479206465706f73697420616d6f756e740000000000604082015260600190565b9081526020019056fea2646970667358221220da6c1fb373476e089f18947f4c0a9ba6d09a65778d570253fe326949d969792564736f6c63430008000033",
  "immutableReferences": {},
  "source": "// SPDX-License-Identifier: MIT\npragma solidity >=0.4.22 <0.9.0;\n\ncontract Bank {\n\n    event Deposit(address indexed user, uint amount);\n    event Withdraw(address indexed user, uint amount);\n\n    receive() external payable {\n        require(msg.value > 0, 'Error: empty deposit amount');\n        emit Deposit(msg.sender, msg.value);\n    }\n\n    function withdraw(uint amount) public {\n        payable(msg.sender).transfer(amount);\n        emit Withdraw(msg.sender, amount);\n    }\n\n    function balanceOf() external view returns (uint){\n        return address(this).balance;\n    }\n\n}\n",
  "sourcePath": "/Users/vlodkow.mr/www/crypto-club/client/src/blockchain/contracts/Bank.sol",
  "compiler": {
    "name": "solc",
    "version": "0.8.0+commit.c7dfd78e.Emscripten.clang"
  },
  "schemaVersion": "3.4.1",
  "updatedAt": "2021-07-21T18:58:18.458Z",
  "networkType": "ethereum",
  "devdoc": {
    "kind": "dev",
    "methods": {},
    "version": 1
  },
  "userdoc": {
    "kind": "user",
    "methods": {},
    "version": 1
  }
}